{
  "_format": "hh-sol-artifact-1",
  "contractName": "EthStaking",
  "sourceName": "contracts/EthStaking.sol",
  "abi": [
    {
      "inputs": [],
      "stateMutability": "nonpayable",
      "type": "constructor"
    },
    {
      "anonymous": false,
      "inputs": [
        {
          "indexed": true,
          "internalType": "address",
          "name": "owner",
          "type": "address"
        },
        {
          "indexed": false,
          "internalType": "uint256",
          "name": "amount",
          "type": "uint256"
        }
      ],
      "name": "EmergencyWithdraw",
      "type": "event"
    },
    {
      "anonymous": false,
      "inputs": [
        {
          "indexed": true,
          "internalType": "address",
          "name": "previousOwner",
          "type": "address"
        },
        {
          "indexed": true,
          "internalType": "address",
          "name": "newOwner",
          "type": "address"
        }
      ],
      "name": "OwnershipTransferred",
      "type": "event"
    },
    {
      "anonymous": false,
      "inputs": [
        {
          "indexed": true,
          "internalType": "address",
          "name": "user",
          "type": "address"
        },
        {
          "indexed": false,
          "internalType": "uint256",
          "name": "reward",
          "type": "uint256"
        },
        {
          "indexed": false,
          "internalType": "uint256",
          "name": "timestamp",
          "type": "uint256"
        }
      ],
      "name": "RewardClaimed",
      "type": "event"
    },
    {
      "anonymous": false,
      "inputs": [
        {
          "indexed": true,
          "internalType": "address",
          "name": "user",
          "type": "address"
        },
        {
          "indexed": false,
          "internalType": "uint256",
          "name": "amount",
          "type": "uint256"
        },
        {
          "indexed": false,
          "internalType": "uint256",
          "name": "timestamp",
          "type": "uint256"
        }
      ],
      "name": "Staked",
      "type": "event"
    },
    {
      "anonymous": false,
      "inputs": [
        {
          "indexed": true,
          "internalType": "address",
          "name": "user",
          "type": "address"
        },
        {
          "indexed": false,
          "internalType": "uint256",
          "name": "amount",
          "type": "uint256"
        },
        {
          "indexed": false,
          "internalType": "uint256",
          "name": "timestamp",
          "type": "uint256"
        }
      ],
      "name": "Withdrawn",
      "type": "event"
    },
    {
      "stateMutability": "payable",
      "type": "fallback"
    },
    {
      "inputs": [],
      "name": "APY_RATE",
      "outputs": [
        {
          "internalType": "uint256",
          "name": "",
          "type": "uint256"
        }
      ],
      "stateMutability": "view",
      "type": "function"
    },
    {
      "inputs": [],
      "name": "LOCK_PERIOD",
      "outputs": [
        {
          "internalType": "uint256",
          "name": "",
          "type": "uint256"
        }
      ],
      "stateMutability": "view",
      "type": "function"
    },
    {
      "inputs": [],
      "name": "PRECISION",
      "outputs": [
        {
          "internalType": "uint256",
          "name": "",
          "type": "uint256"
        }
      ],
      "stateMutability": "view",
      "type": "function"
    },
    {
      "inputs": [],
      "name": "SECONDS_PER_YEAR",
      "outputs": [
        {
          "internalType": "uint256",
          "name": "",
          "type": "uint256"
        }
      ],
      "stateMutability": "view",
      "type": "function"
    },
    {
      "inputs": [
        {
          "internalType": "address",
          "name": "user",
          "type": "address"
        }
      ],
      "name": "calculateReward",
      "outputs": [
        {
          "internalType": "uint256",
          "name": "",
          "type": "uint256"
        }
      ],
      "stateMutability": "view",
      "type": "function"
    },
    {
      "inputs": [],
      "name": "claimRewards",
      "outputs": [],
      "stateMutability": "nonpayable",
      "type": "function"
    },
    {
      "inputs": [],
      "name": "emergencyWithdraw",
      "outputs": [],
      "stateMutability": "nonpayable",
      "type": "function"
    },
    {
      "inputs": [],
      "name": "getContractBalance",
      "outputs": [
        {
          "internalType": "uint256",
          "name": "",
          "type": "uint256"
        }
      ],
      "stateMutability": "view",
      "type": "function"
    },
    {
      "inputs": [
        {
          "internalType": "address",
          "name": "user",
          "type": "address"
        }
      ],
      "name": "getUserInfo",
      "outputs": [
        {
          "internalType": "uint256",
          "name": "totalStaked",
          "type": "uint256"
        },
        {
          "internalType": "uint256",
          "name": "totalRewardsClaimed",
          "type": "uint256"
        },
        {
          "internalType": "uint256",
          "name": "pendingRewards",
          "type": "uint256"
        },
        {
          "internalType": "uint256",
          "name": "activeStakes",
          "type": "uint256"
        },
        {
          "components": [
            {
              "internalType": "uint256",
              "name": "amount",
              "type": "uint256"
            },
            {
              "internalType": "uint256",
              "name": "timestamp",
              "type": "uint256"
            },
            {
              "internalType": "uint256",
              "name": "lastRewardCalculation",
              "type": "uint256"
            },
            {
              "internalType": "bool",
              "name": "isActive",
              "type": "bool"
            }
          ],
          "internalType": "struct EthStaking.StakeInfo[]",
          "name": "stakes",
          "type": "tuple[]"
        }
      ],
      "stateMutability": "view",
      "type": "function"
    },
    {
      "inputs": [],
      "name": "owner",
      "outputs": [
        {
          "internalType": "address",
          "name": "",
          "type": "address"
        }
      ],
      "stateMutability": "view",
      "type": "function"
    },
    {
      "inputs": [],
      "name": "renounceOwnership",
      "outputs": [],
      "stateMutability": "nonpayable",
      "type": "function"
    },
    {
      "inputs": [],
      "name": "stake",
      "outputs": [],
      "stateMutability": "payable",
      "type": "function"
    },
    {
      "inputs": [],
      "name": "totalRewardsPaid",
      "outputs": [
        {
          "internalType": "uint256",
          "name": "",
          "type": "uint256"
        }
      ],
      "stateMutability": "view",
      "type": "function"
    },
    {
      "inputs": [],
      "name": "totalStaked",
      "outputs": [
        {
          "internalType": "uint256",
          "name": "",
          "type": "uint256"
        }
      ],
      "stateMutability": "view",
      "type": "function"
    },
    {
      "inputs": [],
      "name": "totalStakers",
      "outputs": [
        {
          "internalType": "uint256",
          "name": "",
          "type": "uint256"
        }
      ],
      "stateMutability": "view",
      "type": "function"
    },
    {
      "inputs": [
        {
          "internalType": "address",
          "name": "newOwner",
          "type": "address"
        }
      ],
      "name": "transferOwnership",
      "outputs": [],
      "stateMutability": "nonpayable",
      "type": "function"
    },
    {
      "inputs": [
        {
          "internalType": "address",
          "name": "",
          "type": "address"
        }
      ],
      "name": "users",
      "outputs": [
        {
          "internalType": "uint256",
          "name": "totalStaked",
          "type": "uint256"
        },
        {
          "internalType": "uint256",
          "name": "totalRewardsClaimed",
          "type": "uint256"
        },
        {
          "internalType": "uint256",
          "name": "pendingRewards",
          "type": "uint256"
        },
        {
          "internalType": "uint256",
          "name": "lastUpdateTime",
          "type": "uint256"
        }
      ],
      "stateMutability": "view",
      "type": "function"
    },
    {
      "inputs": [
        {
          "internalType": "uint256",
          "name": "stakeIndex",
          "type": "uint256"
        }
      ],
      "name": "withdraw",
      "outputs": [],
      "stateMutability": "nonpayable",
      "type": "function"
    },
    {
      "stateMutability": "payable",
      "type": "receive"
    }
  ],
  "bytecode": "0x608060405234801561001057600080fd5b50600160005561001f33610024565b610076565b600180546001600160a01b038381166001600160a01b0319831681179093556040519116919082907f8be0079c531659141344cd1fd0a4f28419497f9722a3daafe3b4186f6b6457e090600090a35050565b610f2d806100856000396000f3fe6080604052600436106101015760003560e01c8063817b1cd21161008f578063aaf5eb6811610061578063aaf5eb68146102ac578063d82e3962146102c8578063db2e21bc146102e8578063e6a69ab8146102fd578063f2fde38b1461031557005b8063817b1cd2146101f6578063869890381461020c5780638da5cb5b14610222578063a87430ba1461024a57005b806346a203d0116100d357806346a203d0146101715780636386c1c7146101875780636f9fb98a146101b8578063715018a6146101cb57806374958e35146101e057005b80631820cabb1461010a5780632e1a7d4d14610134578063372500ab146101545780633a4b66f11461016957005b3661010857005b005b34801561011657600080fd5b5061012162278d0081565b6040519081526020015b60405180910390f35b34801561014057600080fd5b5061010861014f366004610d69565b610335565b34801561016057600080fd5b506101086105bc565b610108610744565b34801561017d57600080fd5b506101216104e281565b34801561019357600080fd5b506101a76101a2366004610d82565b6108bd565b60405161012b959493929190610db2565b3480156101c457600080fd5b5047610121565b3480156101d757600080fd5b506101086109e9565b3480156101ec57600080fd5b5061012160035481565b34801561020257600080fd5b5061012160025481565b34801561021857600080fd5b5061012160045481565b34801561022e57600080fd5b506001546040516001600160a01b03909116815260200161012b565b34801561025657600080fd5b5061028c610265366004610d82565b60056020526000908152604090208054600182015460028301546003909301549192909184565b60408051948552602085019390935291830152606082015260800161012b565b3480156102b857600080fd5b50610121670de0b6b3a764000081565b3480156102d457600080fd5b506101216102e3366004610d82565b6109fb565b3480156102f457600080fd5b50610108610a9d565b34801561030957600080fd5b506101216301e1338081565b34801561032157600080fd5b50610108610330366004610d82565b610bee565b61033d610c64565b3360009081526005602052604090206004810154821061039a5760405162461bcd60e51b8152602060048201526013602482015272092dcecc2d8d2c840e6e8c2d6ca40d2dcc8caf606b1b60448201526064015b60405180910390fd5b60008160040183815481106103b1576103b1610e36565b60009182526020909120600490910201600381015490915060ff166104185760405162461bcd60e51b815260206004820152601760248201527f5374616b6520616c72656164792077697468647261776e0000000000000000006044820152606401610391565b62278d00816001015461042b9190610e62565b4210156104705760405162461bcd60e51b8152602060048201526013602482015272131bd8dac81c195c9a5bd9081b9bdd081b595d606a1b6044820152606401610391565b805461047b336109fb565b600284015560038201805460ff191690558254819084906000906104a0908490610e7b565b9250508190555080600260008282546104b99190610e7b565b909155505042600384015582546000036104e357600480549060006104dd83610e8e565b91905055505b604051600090339083908381818185875af1925050503d8060008114610525576040519150601f19603f3d011682016040523d82523d6000602084013e61052a565b606091505b50509050806105715760405162461bcd60e51b8152602060048201526013602482015272115512081d1c985b9cd9995c8819985a5b1959606a1b6044820152606401610391565b6040805183815242602082015233917f92ccf450a286a957af52509bc1c9939d1a6a481783e142e41e2499f0bb66ebc6910160405180910390a2505050506105b96001600055565b50565b6105c4610c64565b60006105cf336109fb565b9050600081116106185760405162461bcd60e51b81526020600482015260146024820152734e6f207265776172647320617661696c61626c6560601b6044820152606401610391565b3360009081526005602052604081206002810182905560018101805491928492610643908490610e62565b9250508190555042816003018190555081600360008282546106659190610e62565b9091555050604051600090339084908381818185875af1925050503d80600081146106ac576040519150601f19603f3d011682016040523d82523d6000602084013e6106b1565b606091505b50509050806106fb5760405162461bcd60e51b815260206004820152601660248201527514995dd85c99081d1c985b9cd9995c8819985a5b195960521b6044820152606401610391565b6040805184815242602082015233917ff01da32686223933d8a18a391060918c7f11a3648639edd87ae013e2e2731743910160405180910390a25050506107426001600055565b565b61074c610c64565b600034116107915760405162461bcd60e51b8152602060048201526012602482015271086c2dcdcdee840e6e8c2d6ca4060408aa8960731b6044820152606401610391565b3360009081526005602052604090208054156107b6576107b0336109fb565b60028201555b604080516080810182523480825242602080840182815294840191825260016060850181815260048881018054808501825560009182529481208851959092029091019384559651918301919091559151600282015590516003909101805460ff1916911515919091179055835491929091849190610836908490610e62565b90915550504260038301558154349003610860576004805490600061085a83610ea5565b91905055505b34600260008282546108729190610e62565b90915550506040805134815242602082015233917f1449c6dd7851abc30abf37f57715f492010519147cc2652fbc38202c18a6ee90910160405180910390a250506107426001600055565b6001600160a01b038116600090815260056020526040812081908190819060609082805b600483015481101561093e5782600401818154811061090257610902610e36565b600091825260209091206003600490920201015460ff161561092c578161092881610ea5565b9250505b8061093681610ea5565b9150506108e1565b508154600183015461094f8a6109fb565b838560040180805480602002602001604051908101604052809291908181526020016000905b828210156109ce576000848152602090819020604080516080810182526004860290920180548352600180820154848601526002820154928401929092526003015460ff16151560608301529083529092019101610975565b50505050905096509650965096509650505091939590929450565b6109f1610cbd565b6107426000610d17565b6001600160a01b038116600090815260056020526040812080548203610a245750600092915050565b6000816003015442610a369190610e7b565b905080600003610a4b57506002015492915050565b6000610a5d6301e13380612710610ebe565b83548390610a6e906104e290610ebe565b610a789190610ebe565b610a829190610ed5565b9050808360020154610a949190610e62565b95945050505050565b610aa5610cbd565b4780610ae85760405162461bcd60e51b81526020600482015260126024820152714e6f2045544820746f20776974686472617760701b6044820152606401610391565b6000610afc6001546001600160a01b031690565b6001600160a01b03168260405160006040518083038185875af1925050503d8060008114610b46576040519150601f19603f3d011682016040523d82523d6000602084013e610b4b565b606091505b5050905080610b9c5760405162461bcd60e51b815260206004820152601960248201527f456d657267656e6379207769746864726177206661696c6564000000000000006044820152606401610391565b6001546001600160a01b03166001600160a01b03167f5fafa99d0643513820be26656b45130b01e1c03062e1266bf36f88cbd3bd969583604051610be291815260200190565b60405180910390a25050565b610bf6610cbd565b6001600160a01b038116610c5b5760405162461bcd60e51b815260206004820152602660248201527f4f776e61626c653a206e6577206f776e657220697320746865207a65726f206160448201526564647265737360d01b6064820152608401610391565b6105b981610d17565b600260005403610cb65760405162461bcd60e51b815260206004820152601f60248201527f5265656e7472616e637947756172643a207265656e7472616e742063616c6c006044820152606401610391565b6002600055565b6001546001600160a01b031633146107425760405162461bcd60e51b815260206004820181905260248201527f4f776e61626c653a2063616c6c6572206973206e6f7420746865206f776e65726044820152606401610391565b600180546001600160a01b038381166001600160a01b0319831681179093556040519116919082907f8be0079c531659141344cd1fd0a4f28419497f9722a3daafe3b4186f6b6457e090600090a35050565b600060208284031215610d7b57600080fd5b5035919050565b600060208284031215610d9457600080fd5b81356001600160a01b0381168114610dab57600080fd5b9392505050565b600060a08201878352602087818501526040878186015260608781870152608060a08188015284885180875260c089019150858a01965060005b81811015610e2357875180518452878101518885015286810151878501528501511515858401529686019691830191600101610dec565b50909d9c50505050505050505050505050565b634e487b7160e01b600052603260045260246000fd5b634e487b7160e01b600052601160045260246000fd5b80820180821115610e7557610e75610e4c565b92915050565b81810381811115610e7557610e75610e4c565b600081610e9d57610e9d610e4c565b506000190190565b600060018201610eb757610eb7610e4c565b5060010190565b8082028115828204841417610e7557610e75610e4c565b600082610ef257634e487b7160e01b600052601260045260246000fd5b50049056fea264697066735822122055bebd5ccb7beac717f903903ea217a5a2df49a03c503b30ff4a3120a51d19be64736f6c63430008130033",
  "linkReferences": {},
  "deployedLinkReferences": {}
}