{
  "_format": "hh-sol-artifact-1",
  "contractName": "WeethStaking",
  "sourceName": "contracts/WeethStaking.sol",
  "abi": [
    {
      "inputs": [
        {
          "internalType": "address",
          "name": "_weethToken",
          "type": "address"
        }
      ],
      "stateMutability": "nonpayable",
      "type": "constructor"
    },
    {
      "anonymous": false,
      "inputs": [
        {
          "indexed": true,
          "internalType": "address",
          "name": "owner",
          "type": "address"
        },
        {
          "indexed": false,
          "internalType": "uint256",
          "name": "amount",
          "type": "uint256"
        }
      ],
      "name": "EmergencyWithdraw",
      "type": "event"
    },
    {
      "anonymous": false,
      "inputs": [
        {
          "indexed": true,
          "internalType": "address",
          "name": "previousOwner",
          "type": "address"
        },
        {
          "indexed": true,
          "internalType": "address",
          "name": "newOwner",
          "type": "address"
        }
      ],
      "name": "OwnershipTransferred",
      "type": "event"
    },
    {
      "anonymous": false,
      "inputs": [
        {
          "indexed": true,
          "internalType": "address",
          "name": "user",
          "type": "address"
        },
        {
          "indexed": false,
          "internalType": "uint256",
          "name": "reward",
          "type": "uint256"
        },
        {
          "indexed": false,
          "internalType": "uint256",
          "name": "timestamp",
          "type": "uint256"
        }
      ],
      "name": "RewardClaimed",
      "type": "event"
    },
    {
      "anonymous": false,
      "inputs": [
        {
          "indexed": true,
          "internalType": "address",
          "name": "user",
          "type": "address"
        },
        {
          "indexed": false,
          "internalType": "uint256",
          "name": "amount",
          "type": "uint256"
        },
        {
          "indexed": false,
          "internalType": "uint256",
          "name": "timestamp",
          "type": "uint256"
        }
      ],
      "name": "Staked",
      "type": "event"
    },
    {
      "anonymous": false,
      "inputs": [
        {
          "indexed": true,
          "internalType": "address",
          "name": "user",
          "type": "address"
        },
        {
          "indexed": false,
          "internalType": "uint256",
          "name": "amount",
          "type": "uint256"
        },
        {
          "indexed": false,
          "internalType": "uint256",
          "name": "timestamp",
          "type": "uint256"
        }
      ],
      "name": "Withdrawn",
      "type": "event"
    },
    {
      "inputs": [],
      "name": "APY_RATE",
      "outputs": [
        {
          "internalType": "uint256",
          "name": "",
          "type": "uint256"
        }
      ],
      "stateMutability": "view",
      "type": "function"
    },
    {
      "inputs": [],
      "name": "LOCK_PERIOD",
      "outputs": [
        {
          "internalType": "uint256",
          "name": "",
          "type": "uint256"
        }
      ],
      "stateMutability": "view",
      "type": "function"
    },
    {
      "inputs": [],
      "name": "PRECISION",
      "outputs": [
        {
          "internalType": "uint256",
          "name": "",
          "type": "uint256"
        }
      ],
      "stateMutability": "view",
      "type": "function"
    },
    {
      "inputs": [],
      "name": "SECONDS_PER_YEAR",
      "outputs": [
        {
          "internalType": "uint256",
          "name": "",
          "type": "uint256"
        }
      ],
      "stateMutability": "view",
      "type": "function"
    },
    {
      "inputs": [
        {
          "internalType": "address",
          "name": "user",
          "type": "address"
        }
      ],
      "name": "calculateReward",
      "outputs": [
        {
          "internalType": "uint256",
          "name": "",
          "type": "uint256"
        }
      ],
      "stateMutability": "view",
      "type": "function"
    },
    {
      "inputs": [],
      "name": "claimRewards",
      "outputs": [],
      "stateMutability": "nonpayable",
      "type": "function"
    },
    {
      "inputs": [],
      "name": "emergencyWithdraw",
      "outputs": [],
      "stateMutability": "nonpayable",
      "type": "function"
    },
    {
      "inputs": [],
      "name": "getContractBalance",
      "outputs": [
        {
          "internalType": "uint256",
          "name": "",
          "type": "uint256"
        }
      ],
      "stateMutability": "view",
      "type": "function"
    },
    {
      "inputs": [
        {
          "internalType": "address",
          "name": "user",
          "type": "address"
        }
      ],
      "name": "getUserInfo",
      "outputs": [
        {
          "internalType": "uint256",
          "name": "totalStaked",
          "type": "uint256"
        },
        {
          "internalType": "uint256",
          "name": "totalRewardsClaimed",
          "type": "uint256"
        },
        {
          "internalType": "uint256",
          "name": "pendingRewards",
          "type": "uint256"
        },
        {
          "internalType": "uint256",
          "name": "activeStakes",
          "type": "uint256"
        },
        {
          "components": [
            {
              "internalType": "uint256",
              "name": "amount",
              "type": "uint256"
            },
            {
              "internalType": "uint256",
              "name": "timestamp",
              "type": "uint256"
            },
            {
              "internalType": "uint256",
              "name": "lastRewardCalculation",
              "type": "uint256"
            },
            {
              "internalType": "bool",
              "name": "isActive",
              "type": "bool"
            }
          ],
          "internalType": "struct WeethStaking.StakeInfo[]",
          "name": "stakes",
          "type": "tuple[]"
        }
      ],
      "stateMutability": "view",
      "type": "function"
    },
    {
      "inputs": [
        {
          "internalType": "address",
          "name": "",
          "type": "address"
        }
      ],
      "name": "hasStaked",
      "outputs": [
        {
          "internalType": "bool",
          "name": "",
          "type": "bool"
        }
      ],
      "stateMutability": "view",
      "type": "function"
    },
    {
      "inputs": [],
      "name": "owner",
      "outputs": [
        {
          "internalType": "address",
          "name": "",
          "type": "address"
        }
      ],
      "stateMutability": "view",
      "type": "function"
    },
    {
      "inputs": [],
      "name": "renounceOwnership",
      "outputs": [],
      "stateMutability": "nonpayable",
      "type": "function"
    },
    {
      "inputs": [
        {
          "internalType": "uint256",
          "name": "amount",
          "type": "uint256"
        }
      ],
      "name": "stake",
      "outputs": [],
      "stateMutability": "nonpayable",
      "type": "function"
    },
    {
      "inputs": [],
      "name": "totalRewardsPaid",
      "outputs": [
        {
          "internalType": "uint256",
          "name": "",
          "type": "uint256"
        }
      ],
      "stateMutability": "view",
      "type": "function"
    },
    {
      "inputs": [],
      "name": "totalStaked",
      "outputs": [
        {
          "internalType": "uint256",
          "name": "",
          "type": "uint256"
        }
      ],
      "stateMutability": "view",
      "type": "function"
    },
    {
      "inputs": [],
      "name": "totalStakers",
      "outputs": [
        {
          "internalType": "uint256",
          "name": "",
          "type": "uint256"
        }
      ],
      "stateMutability": "view",
      "type": "function"
    },
    {
      "inputs": [
        {
          "internalType": "address",
          "name": "newOwner",
          "type": "address"
        }
      ],
      "name": "transferOwnership",
      "outputs": [],
      "stateMutability": "nonpayable",
      "type": "function"
    },
    {
      "inputs": [
        {
          "internalType": "address",
          "name": "",
          "type": "address"
        },
        {
          "internalType": "uint256",
          "name": "",
          "type": "uint256"
        }
      ],
      "name": "userStakes",
      "outputs": [
        {
          "internalType": "uint256",
          "name": "amount",
          "type": "uint256"
        },
        {
          "internalType": "uint256",
          "name": "timestamp",
          "type": "uint256"
        },
        {
          "internalType": "uint256",
          "name": "lastRewardCalculation",
          "type": "uint256"
        },
        {
          "internalType": "bool",
          "name": "isActive",
          "type": "bool"
        }
      ],
      "stateMutability": "view",
      "type": "function"
    },
    {
      "inputs": [
        {
          "internalType": "address",
          "name": "",
          "type": "address"
        }
      ],
      "name": "userTotalRewardsClaimed",
      "outputs": [
        {
          "internalType": "uint256",
          "name": "",
          "type": "uint256"
        }
      ],
      "stateMutability": "view",
      "type": "function"
    },
    {
      "inputs": [
        {
          "internalType": "address",
          "name": "",
          "type": "address"
        }
      ],
      "name": "userTotalStaked",
      "outputs": [
        {
          "internalType": "uint256",
          "name": "",
          "type": "uint256"
        }
      ],
      "stateMutability": "view",
      "type": "function"
    },
    {
      "inputs": [],
      "name": "weethToken",
      "outputs": [
        {
          "internalType": "contract IERC20",
          "name": "",
          "type": "address"
        }
      ],
      "stateMutability": "view",
      "type": "function"
    },
    {
      "inputs": [
        {
          "internalType": "uint256",
          "name": "stakeIndex",
          "type": "uint256"
        }
      ],
      "name": "withdraw",
      "outputs": [],
      "stateMutability": "nonpayable",
      "type": "function"
    }
  ],
  "bytecode": "0x60a060405234801561001057600080fd5b5060405161141138038061141183398101604081905261002f916100a0565b600160005561003d3361004e565b6001600160a01b03166080526100d0565b600180546001600160a01b038381166001600160a01b0319831681179093556040519116919082907f8be0079c531659141344cd1fd0a4f28419497f9722a3daafe3b4186f6b6457e090600090a35050565b6000602082840312156100b257600080fd5b81516001600160a01b03811681146100c957600080fd5b9392505050565b6080516112fc6101156000396000818161029a015281816104fd015281816107300152818161094301528181610a4701528181610d570152610e1501526112fc6000f3fe608060405234801561001057600080fd5b50600436106101425760003560e01c806386989038116100b8578063b611df861161007c578063b611df8614610295578063c93c8f34146102bc578063d82e3962146102ef578063db2e21bc14610302578063e6a69ab81461030a578063f2fde38b1461031557600080fd5b806386989038146102105780638da5cb5b14610219578063a694fc3a1461023e578063aaf5eb6814610251578063b5d5b5fa1461026057600080fd5b80636386c1c71161010a5780636386c1c7146101aa5780636f9fb98a146101ce578063715018a6146101d6578063719de1ef146101de57806374958e35146101fe578063817b1cd21461020757600080fd5b80631820cabb146101475780632e1a7d4d14610164578063372500ab1461017957806346a203d01461018157806356652f081461018a575b600080fd5b61015162278d0081565b6040519081526020015b60405180910390f35b6101776101723660046110ad565b610328565b005b6101776105d7565b6101516104e281565b6101516101983660046110e2565b60076020526000908152604090205481565b6101bd6101b83660046110e2565b610808565b60405161015b959493929190611104565b61015161092b565b6101776109bb565b6101516101ec3660046110e2565b60066020526000908152604090205481565b61015160035481565b61015160025481565b61015160045481565b6001546001600160a01b03165b6040516001600160a01b03909116815260200161015b565b61017761024c3660046110ad565b6109cd565b610151670de0b6b3a764000081565b61027361026e366004611188565b610c09565b604080519485526020850193909352918301521515606082015260800161015b565b6102267f000000000000000000000000000000000000000000000000000000000000000081565b6102df6102ca3660046110e2565b60086020526000908152604090205460ff1681565b604051901515815260200161015b565b6101516102fd3660046110e2565b610c52565b610177610d37565b6101516301e1338081565b6101776103233660046110e2565b610f32565b610330610fa8565b3360009081526005602052604090205481106103895760405162461bcd60e51b8152602060048201526013602482015272092dcecc2d8d2c840e6e8c2d6ca40d2dcc8caf606b1b60448201526064015b60405180910390fd5b3360009081526005602052604090208054829081106103aa576103aa6111b2565b600091825260209091206003600490920201015460ff1661040d5760405162461bcd60e51b815260206004820152601760248201527f5374616b6520616c72656164792077697468647261776e0000000000000000006044820152606401610380565b33600090815260056020526040812080548390811061042e5761042e6111b2565b9060005260206000209060040201905062278d00816001015461045191906111de565b4210156104965760405162461bcd60e51b8152602060048201526013602482015272131bd8dac81c195c9a5bd9081b9bdd081b595d606a1b6044820152606401610380565b805460038201805460ff1916905533600090815260066020526040812080548392906104c39084906111f7565b9250508190555080600260008282546104dc91906111f7565b909155505060405163a9059cbb60e01b8152336004820152602481018290527f00000000000000000000000000000000000000000000000000000000000000006001600160a01b03169063a9059cbb906044016020604051808303816000875af115801561054e573d6000803e3d6000fd5b505050506040513d601f19601f82011682018060405250810190610572919061120a565b61058e5760405162461bcd60e51b81526004016103809061122c565b6040805182815242602082015233917f92ccf450a286a957af52509bc1c9939d1a6a481783e142e41e2499f0bb66ebc6910160405180910390a250506105d46001600055565b50565b6105df610fa8565b60006105ea33610c52565b9050600081116106335760405162461bcd60e51b81526020600482015260146024820152734e6f207265776172647320617661696c61626c6560601b6044820152606401610380565b60005b336000908152600560205260409020548110156106d65733600090815260056020526040902080548290811061066e5761066e6111b2565b600091825260209091206003600490920201015460ff16156106c4573360009081526005602052604090208054429190839081106106ae576106ae6111b2565b9060005260206000209060040201600201819055505b806106ce8161125b565b915050610636565b5033600090815260076020526040812080548392906106f69084906111de565b92505081905550806003600082825461070f91906111de565b909155505060405163a9059cbb60e01b8152336004820152602481018290527f00000000000000000000000000000000000000000000000000000000000000006001600160a01b03169063a9059cbb906044016020604051808303816000875af1158015610781573d6000803e3d6000fd5b505050506040513d601f19601f820116820180604052508101906107a5919061120a565b6107c15760405162461bcd60e51b81526004016103809061122c565b6040805182815242602082015233917ff01da32686223933d8a18a391060918c7f11a3648639edd87ae013e2e2731743910160405180910390a2506108066001600055565b565b6001600160a01b0381166000908152600660209081526040808320546007909252822054909180606061083a86610c52565b6001600160a01b038716600090815260056020908152604080832080548251818502810185019093528083529497509295509290859084015b828210156108cc576000848152602090819020604080516080810182526004860290920180548352600180820154848601526002820154928401929092526003015460ff16151560608301529083529092019101610873565b50505050905060005b8151811015610921578181815181106108f0576108f06111b2565b6020026020010151606001511561090f578261090b8161125b565b9350505b806109198161125b565b9150506108d5565b5091939590929450565b6040516370a0823160e01b81523060048201526000907f00000000000000000000000000000000000000000000000000000000000000006001600160a01b0316906370a0823190602401602060405180830381865afa158015610992573d6000803e3d6000fd5b505050506040513d601f19601f820116820180604052508101906109b69190611274565b905090565b6109c3611001565b610806600061105b565b6109d5610fa8565b60008111610a255760405162461bcd60e51b815260206004820152601d60248201527f416d6f756e74206d7573742062652067726561746572207468616e20300000006044820152606401610380565b6040516323b872dd60e01b8152336004820152306024820152604481018290527f00000000000000000000000000000000000000000000000000000000000000006001600160a01b0316906323b872dd906064016020604051808303816000875af1158015610a98573d6000803e3d6000fd5b505050506040513d601f19601f82011682018060405250810190610abc919061120a565b610ad85760405162461bcd60e51b81526004016103809061122c565b3360008181526005602090815260408083208151608081018352868152428185018181528285019182526001606084018181528554808301875595895287892094516004909602909401948555905190840155516002830155516003909101805460ff1916911515919091179055928252600690529081208054839290610b609084906111de565b925050819055508060026000828254610b7991906111de565b90915550503360009081526008602052604090205460ff16610bc55760048054906000610ba58361125b565b9091555050336000908152600860205260409020805460ff191660011790555b6040805182815242602082015233917f1449c6dd7851abc30abf37f57715f492010519147cc2652fbc38202c18a6ee90910160405180910390a26105d46001600055565b60056020528160005260406000208181548110610c2557600080fd5b60009182526020909120600490910201805460018201546002830154600390930154919450925060ff1684565b600080805b6001600160a01b038416600090815260056020526040902054811015610d30576001600160a01b0384166000908152600560205260408120805483908110610ca157610ca16111b2565b60009182526020909120600490910201600381015490915060ff1615610d1d576000816002015442610cd391906111f7565b90506000610ce76301e1338061271061128d565b83548390610cf8906104e29061128d565b610d02919061128d565b610d0c91906112a4565b9050610d1881866111de565b945050505b5080610d288161125b565b915050610c57565b5092915050565b610d3f611001565b6040516370a0823160e01b81523060048201526000907f00000000000000000000000000000000000000000000000000000000000000006001600160a01b0316906370a0823190602401602060405180830381865afa158015610da6573d6000803e3d6000fd5b505050506040513d601f19601f82011682018060405250810190610dca9190611274565b905060008111610e135760405162461bcd60e51b81526020600482015260146024820152734e6f20776545544820746f20776974686472617760601b6044820152606401610380565b7f00000000000000000000000000000000000000000000000000000000000000006001600160a01b031663a9059cbb610e546001546001600160a01b031690565b6040516001600160e01b031960e084901b1681526001600160a01b039091166004820152602481018490526044016020604051808303816000875af1158015610ea1573d6000803e3d6000fd5b505050506040513d601f19601f82011682018060405250810190610ec5919061120a565b610ee15760405162461bcd60e51b81526004016103809061122c565b6001546001600160a01b03166001600160a01b03167f5fafa99d0643513820be26656b45130b01e1c03062e1266bf36f88cbd3bd969582604051610f2791815260200190565b60405180910390a250565b610f3a611001565b6001600160a01b038116610f9f5760405162461bcd60e51b815260206004820152602660248201527f4f776e61626c653a206e6577206f776e657220697320746865207a65726f206160448201526564647265737360d01b6064820152608401610380565b6105d48161105b565b600260005403610ffa5760405162461bcd60e51b815260206004820152601f60248201527f5265656e7472616e637947756172643a207265656e7472616e742063616c6c006044820152606401610380565b6002600055565b6001546001600160a01b031633146108065760405162461bcd60e51b815260206004820181905260248201527f4f776e61626c653a2063616c6c6572206973206e6f7420746865206f776e65726044820152606401610380565b600180546001600160a01b038381166001600160a01b0319831681179093556040519116919082907f8be0079c531659141344cd1fd0a4f28419497f9722a3daafe3b4186f6b6457e090600090a35050565b6000602082840312156110bf57600080fd5b5035919050565b80356001600160a01b03811681146110dd57600080fd5b919050565b6000602082840312156110f457600080fd5b6110fd826110c6565b9392505050565b600060a08201878352602087818501526040878186015260608781870152608060a08188015284885180875260c089019150858a01965060005b818110156111755787518051845287810151888501528681015187850152850151151585840152968601969183019160010161113e565b50909d9c50505050505050505050505050565b6000806040838503121561119b57600080fd5b6111a4836110c6565b946020939093013593505050565b634e487b7160e01b600052603260045260246000fd5b634e487b7160e01b600052601160045260246000fd5b808201808211156111f1576111f16111c8565b92915050565b818103818111156111f1576111f16111c8565b60006020828403121561121c57600080fd5b815180151581146110fd57600080fd5b6020808252601590820152741dd9515512081d1c985b9cd9995c8819985a5b1959605a1b604082015260600190565b60006001820161126d5761126d6111c8565b5060010190565b60006020828403121561128657600080fd5b5051919050565b80820281158282048414176111f1576111f16111c8565b6000826112c157634e487b7160e01b600052601260045260246000fd5b50049056fea2646970667358221220a0fbd02a0d3f731673b78832793d7ec60397c75f98b4fa919e600a1b9dd72cc564736f6c63430008130033",
  "linkReferences": {},
  "deployedLinkReferences": {}
}