{
  "_format": "hh-sol-artifact-1",
  "contractName": "WethStaking",
  "sourceName": "contracts/WethStaking.sol",
  "abi": [
    {
      "inputs": [
        {
          "internalType": "address",
          "name": "_wethToken",
          "type": "address"
        }
      ],
      "stateMutability": "nonpayable",
      "type": "constructor"
    },
    {
      "anonymous": false,
      "inputs": [
        {
          "indexed": true,
          "internalType": "address",
          "name": "owner",
          "type": "address"
        },
        {
          "indexed": false,
          "internalType": "uint256",
          "name": "amount",
          "type": "uint256"
        }
      ],
      "name": "EmergencyWithdraw",
      "type": "event"
    },
    {
      "anonymous": false,
      "inputs": [
        {
          "indexed": true,
          "internalType": "address",
          "name": "previousOwner",
          "type": "address"
        },
        {
          "indexed": true,
          "internalType": "address",
          "name": "newOwner",
          "type": "address"
        }
      ],
      "name": "OwnershipTransferred",
      "type": "event"
    },
    {
      "anonymous": false,
      "inputs": [
        {
          "indexed": true,
          "internalType": "address",
          "name": "user",
          "type": "address"
        },
        {
          "indexed": false,
          "internalType": "uint256",
          "name": "reward",
          "type": "uint256"
        },
        {
          "indexed": false,
          "internalType": "uint256",
          "name": "timestamp",
          "type": "uint256"
        }
      ],
      "name": "RewardClaimed",
      "type": "event"
    },
    {
      "anonymous": false,
      "inputs": [
        {
          "indexed": true,
          "internalType": "address",
          "name": "user",
          "type": "address"
        },
        {
          "indexed": false,
          "internalType": "uint256",
          "name": "amount",
          "type": "uint256"
        },
        {
          "indexed": false,
          "internalType": "uint256",
          "name": "timestamp",
          "type": "uint256"
        }
      ],
      "name": "Staked",
      "type": "event"
    },
    {
      "anonymous": false,
      "inputs": [
        {
          "indexed": true,
          "internalType": "address",
          "name": "user",
          "type": "address"
        },
        {
          "indexed": false,
          "internalType": "uint256",
          "name": "amount",
          "type": "uint256"
        },
        {
          "indexed": false,
          "internalType": "uint256",
          "name": "timestamp",
          "type": "uint256"
        }
      ],
      "name": "Withdrawn",
      "type": "event"
    },
    {
      "inputs": [],
      "name": "APY_RATE",
      "outputs": [
        {
          "internalType": "uint256",
          "name": "",
          "type": "uint256"
        }
      ],
      "stateMutability": "view",
      "type": "function"
    },
    {
      "inputs": [],
      "name": "LOCK_PERIOD",
      "outputs": [
        {
          "internalType": "uint256",
          "name": "",
          "type": "uint256"
        }
      ],
      "stateMutability": "view",
      "type": "function"
    },
    {
      "inputs": [],
      "name": "PRECISION",
      "outputs": [
        {
          "internalType": "uint256",
          "name": "",
          "type": "uint256"
        }
      ],
      "stateMutability": "view",
      "type": "function"
    },
    {
      "inputs": [],
      "name": "SECONDS_PER_YEAR",
      "outputs": [
        {
          "internalType": "uint256",
          "name": "",
          "type": "uint256"
        }
      ],
      "stateMutability": "view",
      "type": "function"
    },
    {
      "inputs": [
        {
          "internalType": "address",
          "name": "user",
          "type": "address"
        }
      ],
      "name": "calculateReward",
      "outputs": [
        {
          "internalType": "uint256",
          "name": "",
          "type": "uint256"
        }
      ],
      "stateMutability": "view",
      "type": "function"
    },
    {
      "inputs": [],
      "name": "claimRewards",
      "outputs": [],
      "stateMutability": "nonpayable",
      "type": "function"
    },
    {
      "inputs": [],
      "name": "emergencyWithdraw",
      "outputs": [],
      "stateMutability": "nonpayable",
      "type": "function"
    },
    {
      "inputs": [],
      "name": "getContractBalance",
      "outputs": [
        {
          "internalType": "uint256",
          "name": "",
          "type": "uint256"
        }
      ],
      "stateMutability": "view",
      "type": "function"
    },
    {
      "inputs": [
        {
          "internalType": "address",
          "name": "user",
          "type": "address"
        }
      ],
      "name": "getUserInfo",
      "outputs": [
        {
          "internalType": "uint256",
          "name": "totalStaked",
          "type": "uint256"
        },
        {
          "internalType": "uint256",
          "name": "totalRewardsClaimed",
          "type": "uint256"
        },
        {
          "internalType": "uint256",
          "name": "pendingRewards",
          "type": "uint256"
        },
        {
          "internalType": "uint256",
          "name": "activeStakes",
          "type": "uint256"
        },
        {
          "components": [
            {
              "internalType": "uint256",
              "name": "amount",
              "type": "uint256"
            },
            {
              "internalType": "uint256",
              "name": "timestamp",
              "type": "uint256"
            },
            {
              "internalType": "uint256",
              "name": "lastRewardCalculation",
              "type": "uint256"
            },
            {
              "internalType": "bool",
              "name": "isActive",
              "type": "bool"
            }
          ],
          "internalType": "struct WethStaking.StakeInfo[]",
          "name": "stakes",
          "type": "tuple[]"
        }
      ],
      "stateMutability": "view",
      "type": "function"
    },
    {
      "inputs": [
        {
          "internalType": "address",
          "name": "",
          "type": "address"
        }
      ],
      "name": "hasStaked",
      "outputs": [
        {
          "internalType": "bool",
          "name": "",
          "type": "bool"
        }
      ],
      "stateMutability": "view",
      "type": "function"
    },
    {
      "inputs": [],
      "name": "owner",
      "outputs": [
        {
          "internalType": "address",
          "name": "",
          "type": "address"
        }
      ],
      "stateMutability": "view",
      "type": "function"
    },
    {
      "inputs": [],
      "name": "renounceOwnership",
      "outputs": [],
      "stateMutability": "nonpayable",
      "type": "function"
    },
    {
      "inputs": [
        {
          "internalType": "uint256",
          "name": "amount",
          "type": "uint256"
        }
      ],
      "name": "stake",
      "outputs": [],
      "stateMutability": "nonpayable",
      "type": "function"
    },
    {
      "inputs": [],
      "name": "totalRewardsPaid",
      "outputs": [
        {
          "internalType": "uint256",
          "name": "",
          "type": "uint256"
        }
      ],
      "stateMutability": "view",
      "type": "function"
    },
    {
      "inputs": [],
      "name": "totalStaked",
      "outputs": [
        {
          "internalType": "uint256",
          "name": "",
          "type": "uint256"
        }
      ],
      "stateMutability": "view",
      "type": "function"
    },
    {
      "inputs": [],
      "name": "totalStakers",
      "outputs": [
        {
          "internalType": "uint256",
          "name": "",
          "type": "uint256"
        }
      ],
      "stateMutability": "view",
      "type": "function"
    },
    {
      "inputs": [
        {
          "internalType": "address",
          "name": "newOwner",
          "type": "address"
        }
      ],
      "name": "transferOwnership",
      "outputs": [],
      "stateMutability": "nonpayable",
      "type": "function"
    },
    {
      "inputs": [
        {
          "internalType": "address",
          "name": "",
          "type": "address"
        },
        {
          "internalType": "uint256",
          "name": "",
          "type": "uint256"
        }
      ],
      "name": "userStakes",
      "outputs": [
        {
          "internalType": "uint256",
          "name": "amount",
          "type": "uint256"
        },
        {
          "internalType": "uint256",
          "name": "timestamp",
          "type": "uint256"
        },
        {
          "internalType": "uint256",
          "name": "lastRewardCalculation",
          "type": "uint256"
        },
        {
          "internalType": "bool",
          "name": "isActive",
          "type": "bool"
        }
      ],
      "stateMutability": "view",
      "type": "function"
    },
    {
      "inputs": [
        {
          "internalType": "address",
          "name": "",
          "type": "address"
        }
      ],
      "name": "userTotalRewardsClaimed",
      "outputs": [
        {
          "internalType": "uint256",
          "name": "",
          "type": "uint256"
        }
      ],
      "stateMutability": "view",
      "type": "function"
    },
    {
      "inputs": [
        {
          "internalType": "address",
          "name": "",
          "type": "address"
        }
      ],
      "name": "userTotalStaked",
      "outputs": [
        {
          "internalType": "uint256",
          "name": "",
          "type": "uint256"
        }
      ],
      "stateMutability": "view",
      "type": "function"
    },
    {
      "inputs": [],
      "name": "wethToken",
      "outputs": [
        {
          "internalType": "contract IERC20",
          "name": "",
          "type": "address"
        }
      ],
      "stateMutability": "view",
      "type": "function"
    },
    {
      "inputs": [
        {
          "internalType": "uint256",
          "name": "stakeIndex",
          "type": "uint256"
        }
      ],
      "name": "withdraw",
      "outputs": [],
      "stateMutability": "nonpayable",
      "type": "function"
    }
  ],
  "bytecode": "0x60a060405234801561001057600080fd5b5060405161141338038061141383398101604081905261002f916100a0565b600160005561003d3361004e565b6001600160a01b03166080526100d0565b600180546001600160a01b038381166001600160a01b0319831681179093556040519116919082907f8be0079c531659141344cd1fd0a4f28419497f9722a3daafe3b4186f6b6457e090600090a35050565b6000602082840312156100b257600080fd5b81516001600160a01b03811681146100c957600080fd5b9392505050565b6080516112fe6101156000396000818161018f01528181610501015281816107340152818161094701528181610a4b01528181610d5b0152610e1801526112fe6000f3fe608060405234801561001057600080fd5b50600436106101425760003560e01c8063817b1cd2116100b8578063b5d5b5fa1161007c578063b5d5b5fa1461028b578063c93c8f34146102c0578063d82e3962146102f3578063db2e21bc14610306578063e6a69ab81461030e578063f2fde38b1461031957600080fd5b8063817b1cd214610246578063869890381461024f5780638da5cb5b14610258578063a694fc3a14610269578063aaf5eb681461027c57600080fd5b806356652f081161010a57806356652f08146101c95780636386c1c7146101e95780636f9fb98a1461020d578063715018a614610215578063719de1ef1461021d57806374958e351461023d57600080fd5b80631820cabb146101475780632e1a7d4d14610164578063372500ab1461017957806346a203d0146101815780634b57b0be1461018a575b600080fd5b61015162278d0081565b6040519081526020015b60405180910390f35b6101776101723660046110b0565b61032c565b005b6101776105db565b6101516104e281565b6101b17f000000000000000000000000000000000000000000000000000000000000000081565b6040516001600160a01b03909116815260200161015b565b6101516101d73660046110e5565b60076020526000908152604090205481565b6101fc6101f73660046110e5565b61080c565b60405161015b959493929190611107565b61015161092f565b6101776109bf565b61015161022b3660046110e5565b60066020526000908152604090205481565b61015160035481565b61015160025481565b61015160045481565b6001546001600160a01b03166101b1565b6101776102773660046110b0565b6109d1565b610151670de0b6b3a764000081565b61029e61029936600461118b565b610c0d565b604080519485526020850193909352918301521515606082015260800161015b565b6102e36102ce3660046110e5565b60086020526000908152604090205460ff1681565b604051901515815260200161015b565b6101516103013660046110e5565b610c56565b610177610d3b565b6101516301e1338081565b6101776103273660046110e5565b610f35565b610334610fab565b33600090815260056020526040902054811061038d5760405162461bcd60e51b8152602060048201526013602482015272092dcecc2d8d2c840e6e8c2d6ca40d2dcc8caf606b1b60448201526064015b60405180910390fd5b3360009081526005602052604090208054829081106103ae576103ae6111b5565b600091825260209091206003600490920201015460ff166104115760405162461bcd60e51b815260206004820152601760248201527f5374616b6520616c72656164792077697468647261776e0000000000000000006044820152606401610384565b336000908152600560205260408120805483908110610432576104326111b5565b9060005260206000209060040201905062278d00816001015461045591906111e1565b42101561049a5760405162461bcd60e51b8152602060048201526013602482015272131bd8dac81c195c9a5bd9081b9bdd081b595d606a1b6044820152606401610384565b805460038201805460ff1916905533600090815260066020526040812080548392906104c79084906111fa565b9250508190555080600260008282546104e091906111fa565b909155505060405163a9059cbb60e01b8152336004820152602481018290527f00000000000000000000000000000000000000000000000000000000000000006001600160a01b03169063a9059cbb906044016020604051808303816000875af1158015610552573d6000803e3d6000fd5b505050506040513d601f19601f82011682018060405250810190610576919061120d565b6105925760405162461bcd60e51b81526004016103849061122f565b6040805182815242602082015233917f92ccf450a286a957af52509bc1c9939d1a6a481783e142e41e2499f0bb66ebc6910160405180910390a250506105d86001600055565b50565b6105e3610fab565b60006105ee33610c56565b9050600081116106375760405162461bcd60e51b81526020600482015260146024820152734e6f207265776172647320617661696c61626c6560601b6044820152606401610384565b60005b336000908152600560205260409020548110156106da57336000908152600560205260409020805482908110610672576106726111b5565b600091825260209091206003600490920201015460ff16156106c8573360009081526005602052604090208054429190839081106106b2576106b26111b5565b9060005260206000209060040201600201819055505b806106d28161125d565b91505061063a565b5033600090815260076020526040812080548392906106fa9084906111e1565b92505081905550806003600082825461071391906111e1565b909155505060405163a9059cbb60e01b8152336004820152602481018290527f00000000000000000000000000000000000000000000000000000000000000006001600160a01b03169063a9059cbb906044016020604051808303816000875af1158015610785573d6000803e3d6000fd5b505050506040513d601f19601f820116820180604052508101906107a9919061120d565b6107c55760405162461bcd60e51b81526004016103849061122f565b6040805182815242602082015233917ff01da32686223933d8a18a391060918c7f11a3648639edd87ae013e2e2731743910160405180910390a25061080a6001600055565b565b6001600160a01b0381166000908152600660209081526040808320546007909252822054909180606061083e86610c56565b6001600160a01b038716600090815260056020908152604080832080548251818502810185019093528083529497509295509290859084015b828210156108d0576000848152602090819020604080516080810182526004860290920180548352600180820154848601526002820154928401929092526003015460ff16151560608301529083529092019101610877565b50505050905060005b8151811015610925578181815181106108f4576108f46111b5565b60200260200101516060015115610913578261090f8161125d565b9350505b8061091d8161125d565b9150506108d9565b5091939590929450565b6040516370a0823160e01b81523060048201526000907f00000000000000000000000000000000000000000000000000000000000000006001600160a01b0316906370a0823190602401602060405180830381865afa158015610996573d6000803e3d6000fd5b505050506040513d601f19601f820116820180604052508101906109ba9190611276565b905090565b6109c7611004565b61080a600061105e565b6109d9610fab565b60008111610a295760405162461bcd60e51b815260206004820152601d60248201527f416d6f756e74206d7573742062652067726561746572207468616e20300000006044820152606401610384565b6040516323b872dd60e01b8152336004820152306024820152604481018290527f00000000000000000000000000000000000000000000000000000000000000006001600160a01b0316906323b872dd906064016020604051808303816000875af1158015610a9c573d6000803e3d6000fd5b505050506040513d601f19601f82011682018060405250810190610ac0919061120d565b610adc5760405162461bcd60e51b81526004016103849061122f565b3360008181526005602090815260408083208151608081018352868152428185018181528285019182526001606084018181528554808301875595895287892094516004909602909401948555905190840155516002830155516003909101805460ff1916911515919091179055928252600690529081208054839290610b649084906111e1565b925050819055508060026000828254610b7d91906111e1565b90915550503360009081526008602052604090205460ff16610bc95760048054906000610ba98361125d565b9091555050336000908152600860205260409020805460ff191660011790555b6040805182815242602082015233917f1449c6dd7851abc30abf37f57715f492010519147cc2652fbc38202c18a6ee90910160405180910390a26105d86001600055565b60056020528160005260406000208181548110610c2957600080fd5b60009182526020909120600490910201805460018201546002830154600390930154919450925060ff1684565b600080805b6001600160a01b038416600090815260056020526040902054811015610d34576001600160a01b0384166000908152600560205260408120805483908110610ca557610ca56111b5565b60009182526020909120600490910201600381015490915060ff1615610d21576000816002015442610cd791906111fa565b90506000610ceb6301e1338061271061128f565b83548390610cfc906104e29061128f565b610d06919061128f565b610d1091906112a6565b9050610d1c81866111e1565b945050505b5080610d2c8161125d565b915050610c5b565b5092915050565b610d43611004565b6040516370a0823160e01b81523060048201526000907f00000000000000000000000000000000000000000000000000000000000000006001600160a01b0316906370a0823190602401602060405180830381865afa158015610daa573d6000803e3d6000fd5b505050506040513d601f19601f82011682018060405250810190610dce9190611276565b905060008111610e165760405162461bcd60e51b81526020600482015260136024820152724e6f205745544820746f20776974686472617760681b6044820152606401610384565b7f00000000000000000000000000000000000000000000000000000000000000006001600160a01b031663a9059cbb610e576001546001600160a01b031690565b6040516001600160e01b031960e084901b1681526001600160a01b039091166004820152602481018490526044016020604051808303816000875af1158015610ea4573d6000803e3d6000fd5b505050506040513d601f19601f82011682018060405250810190610ec8919061120d565b610ee45760405162461bcd60e51b81526004016103849061122f565b6001546001600160a01b03166001600160a01b03167f5fafa99d0643513820be26656b45130b01e1c03062e1266bf36f88cbd3bd969582604051610f2a91815260200190565b60405180910390a250565b610f3d611004565b6001600160a01b038116610fa25760405162461bcd60e51b815260206004820152602660248201527f4f776e61626c653a206e6577206f776e657220697320746865207a65726f206160448201526564647265737360d01b6064820152608401610384565b6105d88161105e565b600260005403610ffd5760405162461bcd60e51b815260206004820152601f60248201527f5265656e7472616e637947756172643a207265656e7472616e742063616c6c006044820152606401610384565b6002600055565b6001546001600160a01b0316331461080a5760405162461bcd60e51b815260206004820181905260248201527f4f776e61626c653a2063616c6c6572206973206e6f7420746865206f776e65726044820152606401610384565b600180546001600160a01b038381166001600160a01b0319831681179093556040519116919082907f8be0079c531659141344cd1fd0a4f28419497f9722a3daafe3b4186f6b6457e090600090a35050565b6000602082840312156110c257600080fd5b5035919050565b80356001600160a01b03811681146110e057600080fd5b919050565b6000602082840312156110f757600080fd5b611100826110c9565b9392505050565b600060a08201878352602087818501526040878186015260608781870152608060a08188015284885180875260c089019150858a01965060005b8181101561117857875180518452878101518885015286810151878501528501511515858401529686019691830191600101611141565b50909d9c50505050505050505050505050565b6000806040838503121561119e57600080fd5b6111a7836110c9565b946020939093013593505050565b634e487b7160e01b600052603260045260246000fd5b634e487b7160e01b600052601160045260246000fd5b808201808211156111f4576111f46111cb565b92915050565b818103818111156111f4576111f46111cb565b60006020828403121561121f57600080fd5b8151801515811461110057600080fd5b60208082526014908201527315d15512081d1c985b9cd9995c8819985a5b195960621b604082015260600190565b60006001820161126f5761126f6111cb565b5060010190565b60006020828403121561128857600080fd5b5051919050565b80820281158282048414176111f4576111f46111cb565b6000826112c357634e487b7160e01b600052601260045260246000fd5b50049056fea2646970667358221220da2aa94e9467bf7e5696211283715990e44db45fd58b9dfbe9e4c93a5d1d8f6364736f6c63430008130033",
  "linkReferences": {},
  "deployedLinkReferences": {}
}