{
  "_format": "hh-sol-artifact-1",
  "contractName": "TokenStakingOptimized",
  "sourceName": "contracts/TokenStakingOptimized.sol",
  "abi": [
    {
      "inputs": [
        {
          "internalType": "address",
          "name": "_stakingToken",
          "type": "address"
        },
        {
          "internalType": "address",
          "name": "_rewardToken",
          "type": "address"
        },
        {
          "internalType": "uint256",
          "name": "_rewardRate",
          "type": "uint256"
        }
      ],
      "stateMutability": "nonpayable",
      "type": "constructor"
    },
    {
      "anonymous": false,
      "inputs": [
        {
          "indexed": true,
          "internalType": "address",
          "name": "previousOwner",
          "type": "address"
        },
        {
          "indexed": true,
          "internalType": "address",
          "name": "newOwner",
          "type": "address"
        }
      ],
      "name": "OwnershipTransferred",
      "type": "event"
    },
    {
      "anonymous": false,
      "inputs": [
        {
          "indexed": true,
          "internalType": "address",
          "name": "user",
          "type": "address"
        },
        {
          "indexed": false,
          "internalType": "uint256",
          "name": "reward",
          "type": "uint256"
        }
      ],
      "name": "RewardPaid",
      "type": "event"
    },
    {
      "anonymous": false,
      "inputs": [
        {
          "indexed": false,
          "internalType": "uint256",
          "name": "newRate",
          "type": "uint256"
        }
      ],
      "name": "RewardRateUpdated",
      "type": "event"
    },
    {
      "anonymous": false,
      "inputs": [
        {
          "indexed": true,
          "internalType": "address",
          "name": "user",
          "type": "address"
        },
        {
          "indexed": false,
          "internalType": "uint256",
          "name": "amount",
          "type": "uint256"
        },
        {
          "indexed": false,
          "internalType": "uint256",
          "name": "stakeId",
          "type": "uint256"
        },
        {
          "indexed": false,
          "internalType": "uint256",
          "name": "timestamp",
          "type": "uint256"
        }
      ],
      "name": "Staked",
      "type": "event"
    },
    {
      "anonymous": false,
      "inputs": [
        {
          "indexed": true,
          "internalType": "address",
          "name": "user",
          "type": "address"
        },
        {
          "indexed": false,
          "internalType": "uint256",
          "name": "amount",
          "type": "uint256"
        },
        {
          "indexed": false,
          "internalType": "uint256",
          "name": "stakeId",
          "type": "uint256"
        },
        {
          "indexed": false,
          "internalType": "uint256",
          "name": "timestamp",
          "type": "uint256"
        }
      ],
      "name": "Withdrawn",
      "type": "event"
    },
    {
      "inputs": [],
      "name": "PRECISION",
      "outputs": [
        {
          "internalType": "uint256",
          "name": "",
          "type": "uint256"
        }
      ],
      "stateMutability": "view",
      "type": "function"
    },
    {
      "inputs": [],
      "name": "SECONDS_PER_YEAR",
      "outputs": [
        {
          "internalType": "uint256",
          "name": "",
          "type": "uint256"
        }
      ],
      "stateMutability": "view",
      "type": "function"
    },
    {
      "inputs": [],
      "name": "claimRewards",
      "outputs": [],
      "stateMutability": "nonpayable",
      "type": "function"
    },
    {
      "inputs": [
        {
          "internalType": "address",
          "name": "account",
          "type": "address"
        }
      ],
      "name": "earned",
      "outputs": [
        {
          "internalType": "uint256",
          "name": "",
          "type": "uint256"
        }
      ],
      "stateMutability": "view",
      "type": "function"
    },
    {
      "inputs": [
        {
          "internalType": "uint256",
          "name": "amount",
          "type": "uint256"
        }
      ],
      "name": "emergencyWithdrawRewards",
      "outputs": [],
      "stateMutability": "nonpayable",
      "type": "function"
    },
    {
      "inputs": [
        {
          "internalType": "uint256",
          "name": "amount",
          "type": "uint256"
        }
      ],
      "name": "emergencyWithdrawStakingTokens",
      "outputs": [],
      "stateMutability": "nonpayable",
      "type": "function"
    },
    {
      "inputs": [
        {
          "internalType": "address",
          "name": "user",
          "type": "address"
        }
      ],
      "name": "getUserStakingHistory",
      "outputs": [
        {
          "internalType": "uint256",
          "name": "userTotalStaked",
          "type": "uint256"
        },
        {
          "internalType": "uint256",
          "name": "totalRewardsClaimed",
          "type": "uint256"
        },
        {
          "internalType": "uint256",
          "name": "currentRewards",
          "type": "uint256"
        },
        {
          "internalType": "uint256",
          "name": "totalActiveStakes",
          "type": "uint256"
        },
        {
          "components": [
            {
              "internalType": "uint256",
              "name": "amount",
              "type": "uint256"
            },
            {
              "internalType": "uint256",
              "name": "timestamp",
              "type": "uint256"
            },
            {
              "internalType": "bool",
              "name": "isActive",
              "type": "bool"
            },
            {
              "internalType": "uint256",
              "name": "stakeId",
              "type": "uint256"
            }
          ],
          "internalType": "struct TokenStakingOptimized.StakeInfo[]",
          "name": "activeStakes",
          "type": "tuple[]"
        }
      ],
      "stateMutability": "view",
      "type": "function"
    },
    {
      "inputs": [],
      "name": "lastUpdateTime",
      "outputs": [
        {
          "internalType": "uint256",
          "name": "",
          "type": "uint256"
        }
      ],
      "stateMutability": "view",
      "type": "function"
    },
    {
      "inputs": [],
      "name": "minimumStakingPeriod",
      "outputs": [
        {
          "internalType": "uint256",
          "name": "",
          "type": "uint256"
        }
      ],
      "stateMutability": "view",
      "type": "function"
    },
    {
      "inputs": [],
      "name": "owner",
      "outputs": [
        {
          "internalType": "address",
          "name": "",
          "type": "address"
        }
      ],
      "stateMutability": "view",
      "type": "function"
    },
    {
      "inputs": [],
      "name": "renounceOwnership",
      "outputs": [],
      "stateMutability": "nonpayable",
      "type": "function"
    },
    {
      "inputs": [],
      "name": "rewardPerToken",
      "outputs": [
        {
          "internalType": "uint256",
          "name": "",
          "type": "uint256"
        }
      ],
      "stateMutability": "view",
      "type": "function"
    },
    {
      "inputs": [],
      "name": "rewardPerTokenStored",
      "outputs": [
        {
          "internalType": "uint256",
          "name": "",
          "type": "uint256"
        }
      ],
      "stateMutability": "view",
      "type": "function"
    },
    {
      "inputs": [],
      "name": "rewardRate",
      "outputs": [
        {
          "internalType": "uint256",
          "name": "",
          "type": "uint256"
        }
      ],
      "stateMutability": "view",
      "type": "function"
    },
    {
      "inputs": [],
      "name": "rewardToken",
      "outputs": [
        {
          "internalType": "contract IERC20",
          "name": "",
          "type": "address"
        }
      ],
      "stateMutability": "view",
      "type": "function"
    },
    {
      "inputs": [
        {
          "internalType": "uint256",
          "name": "_rewardRate",
          "type": "uint256"
        }
      ],
      "name": "setRewardRate",
      "outputs": [],
      "stateMutability": "nonpayable",
      "type": "function"
    },
    {
      "inputs": [
        {
          "internalType": "uint256",
          "name": "_amount",
          "type": "uint256"
        }
      ],
      "name": "stake",
      "outputs": [],
      "stateMutability": "nonpayable",
      "type": "function"
    },
    {
      "inputs": [],
      "name": "stakingToken",
      "outputs": [
        {
          "internalType": "contract IERC20",
          "name": "",
          "type": "address"
        }
      ],
      "stateMutability": "view",
      "type": "function"
    },
    {
      "inputs": [],
      "name": "totalStaked",
      "outputs": [
        {
          "internalType": "uint256",
          "name": "",
          "type": "uint256"
        }
      ],
      "stateMutability": "view",
      "type": "function"
    },
    {
      "inputs": [
        {
          "internalType": "address",
          "name": "newOwner",
          "type": "address"
        }
      ],
      "name": "transferOwnership",
      "outputs": [],
      "stateMutability": "nonpayable",
      "type": "function"
    },
    {
      "inputs": [
        {
          "internalType": "address",
          "name": "",
          "type": "address"
        }
      ],
      "name": "users",
      "outputs": [
        {
          "internalType": "uint256",
          "name": "totalStaked",
          "type": "uint256"
        },
        {
          "internalType": "uint256",
          "name": "rewardPerTokenPaid",
          "type": "uint256"
        },
        {
          "internalType": "uint256",
          "name": "rewards",
          "type": "uint256"
        },
        {
          "internalType": "uint256",
          "name": "totalRewardsClaimed",
          "type": "uint256"
        },
        {
          "internalType": "uint256",
          "name": "totalStakingHistory",
          "type": "uint256"
        }
      ],
      "stateMutability": "view",
      "type": "function"
    },
    {
      "inputs": [
        {
          "internalType": "uint256",
          "name": "stakeId",
          "type": "uint256"
        }
      ],
      "name": "withdraw",
      "outputs": [],
      "stateMutability": "nonpayable",
      "type": "function"
    }
  ],
  "bytecode": "0x60c06040523480156200001157600080fd5b506040516200176c3803806200176c8339810160408190526200003491620001e0565b6001600055620000443362000171565b6001600160a01b038316620000a05760405162461bcd60e51b815260206004820152601560248201527f496e76616c6964207374616b696e6720746f6b656e000000000000000000000060448201526064015b60405180910390fd5b6001600160a01b038216620000f85760405162461bcd60e51b815260206004820152601460248201527f496e76616c69642072657761726420746f6b656e000000000000000000000000604482015260640162000097565b600081116200014a5760405162461bcd60e51b815260206004820152601360248201527f496e76616c696420726577617264207261746500000000000000000000000000604482015260640162000097565b6001600160a01b03928316608052911660a0526003554260045562278d0060065562000221565b600180546001600160a01b038381166001600160a01b0319831681179093556040519116919082907f8be0079c531659141344cd1fd0a4f28419497f9722a3daafe3b4186f6b6457e090600090a35050565b80516001600160a01b0381168114620001db57600080fd5b919050565b600080600060608486031215620001f657600080fd5b6200020184620001c3565b92506200021160208501620001c3565b9150604084015190509250925092565b60805160a0516114fb620002716000396000818161031d015281816106f001526108e00152600081816101cd015281816105df01528181610d7f01528181610f1f015261102c01526114fb6000f3fe608060405234801561001057600080fd5b50600436106101415760003560e01c80639e447fc6116100b8578063c8f33c911161007c578063c8f33c91146102e0578063cd3daf9d146102e9578063df136d65146102f1578063e6a69ab8146102fa578063f2fde38b14610305578063f7c618c11461031857600080fd5b80639e447fc614610233578063a694fc3a14610246578063a87430ba14610259578063aaf5eb68146102be578063b67a9449146102cd57600080fd5b8063715018a61161010a578063715018a6146101c057806372f702f3146101c85780637b0a47ee146102075780637ebed54c14610210578063817b1cd2146102195780638da5cb5b1461022257600080fd5b80628cc262146101465780632e1a7d4d1461016c57806330409c8514610181578063372500ab146101945780635f77534d1461019c575b600080fd5b610159610154366004611303565b61033f565b6040519081526020015b60405180910390f35b61017f61017a366004611333565b6103bb565b005b61017f61018f366004611333565b6106e6565b61017f6107e5565b6101af6101aa366004611303565b6109dd565b60405161016395949392919061134c565b61017f610bde565b6101ef7f000000000000000000000000000000000000000000000000000000000000000081565b6040516001600160a01b039091168152602001610163565b61015960035481565b61015960065481565b61015960025481565b6001546001600160a01b03166101ef565b61017f610241366004611333565b610bf0565b61017f610254366004611333565b610ccd565b610296610267366004611303565b600760205260009081526040902080546001820154600283015460038401546004909401549293919290919085565b604080519586526020860194909452928401919091526060830152608082015260a001610163565b610159670de0b6b3a764000081565b61017f6102db366004611333565b611022565b61015960045481565b610159611128565b61015960055481565b6101596301e1338081565b61017f610313366004611303565b611188565b6101ef7f000000000000000000000000000000000000000000000000000000000000000081565b6001600160a01b03811660009081526007602052604081206002810154600190910154670de0b6b3a764000090610374611128565b61037e91906113e6565b6001600160a01b0385166000908152600760205260409020546103a191906113f9565b6103ab9190611410565b6103b59190611432565b92915050565b6103c36111fe565b336103cc611128565b600555426004556001600160a01b03811615610415576103eb8161033f565b6001600160a01b038216600090815260076020526040902060028101919091556005546001909101555b33600090815260076020526040812090600019905b60058301548110156104b2578483600501828154811061044c5761044c611445565b906000526020600020906004020160030154148015610493575082600501818154811061047b5761047b611445565b600091825260209091206002600490920201015460ff165b156104a0578091506104b2565b806104aa8161145b565b91505061042a565b5060001981036104fb5760405162461bcd60e51b815260206004820152600f60248201526e14dd185ad9481b9bdd08199bdd5b99608a1b60448201526064015b60405180910390fd5b600082600501828154811061051257610512611445565b9060005260206000209060040201905060065481600101546105349190611432565b4210156105835760405162461bcd60e51b815260206004820152601e60248201527f4d696e696d756d207374616b696e6720706572696f64206e6f74206d6574000060448201526064016104f2565b805460028201805460ff191690558354819085906000906105a59084906113e6565b9250508190555080600260008282546105be91906113e6565b909155505060405163a9059cbb60e01b8152336004820152602481018290527f00000000000000000000000000000000000000000000000000000000000000006001600160a01b03169063a9059cbb906044016020604051808303816000875af1158015610630573d6000803e3d6000fd5b505050506040513d601f19601f820116820180604052508101906106549190611474565b6106925760405162461bcd60e51b815260206004820152600f60248201526e151c985b9cd9995c8819985a5b1959608a1b60448201526064016104f2565b60408051828152602081018890524281830152905133917f75e161b3e824b114fc1a33274bd7091918dd4e639cede50b78b15a4eea956a21919081900360600190a250505050506106e36001600055565b50565b6106ee611257565b7f00000000000000000000000000000000000000000000000000000000000000006001600160a01b031663a9059cbb61072f6001546001600160a01b031690565b6040516001600160e01b031960e084901b1681526001600160a01b039091166004820152602481018490526044016020604051808303816000875af115801561077c573d6000803e3d6000fd5b505050506040513d601f19601f820116820180604052508101906107a09190611474565b6106e35760405162461bcd60e51b815260206004820152601660248201527514995dd85c99081d1c985b9cd9995c8819985a5b195960521b60448201526064016104f2565b6107ed6111fe565b336107f6611128565b600555426004556001600160a01b0381161561083f576108158161033f565b6001600160a01b038216600090815260076020526040902060028101919091556005546001909101555b33600090815260076020526040902060020154806108965760405162461bcd60e51b81526020600482015260146024820152734e6f207265776172647320617661696c61626c6560601b60448201526064016104f2565b3360009081526007602052604081206002810182905560030180548392906108bf908490611432565b909155505060405163a9059cbb60e01b8152336004820152602481018290527f00000000000000000000000000000000000000000000000000000000000000006001600160a01b03169063a9059cbb906044016020604051808303816000875af1158015610931573d6000803e3d6000fd5b505050506040513d601f19601f820116820180604052508101906109559190611474565b61099a5760405162461bcd60e51b815260206004820152601660248201527514995dd85c99081d1c985b9cd9995c8819985a5b195960521b60448201526064016104f2565b60405181815233907fe2403640ba68fed3a2f88b7557551d1993f84b99bb10ff833f0cf8db0c5e04869060200160405180910390a250506109db6001600055565b565b6001600160a01b038116600090815260076020526040812081908190819060609082805b6005830154811015610a5e57826005018181548110610a2257610a22611445565b600091825260209091206002600490920201015460ff1615610a4c5781610a488161145b565b9250505b80610a568161145b565b915050610a01565b5060008167ffffffffffffffff811115610a7a57610a7a611496565b604051908082528060200260200182016040528015610ad857816020015b610ac560405180608001604052806000815260200160008152602001600015158152602001600081525090565b815260200190600190039081610a985790505b5090506000805b6005850154811015610bb757846005018181548110610b0057610b00611445565b600091825260209091206002600490920201015460ff1615610ba557846005018181548110610b3157610b31611445565b600091825260209182902060408051608081018252600490930290910180548352600181015493830193909352600283015460ff1615159082015260039091015460608201528351849084908110610b8b57610b8b611445565b60200260200101819052508180610ba19061145b565b9250505b80610baf8161145b565b915050610adf565b5083546003850154610bc88c61033f565b919c909b50909950929750909550909350505050565b610be6611257565b6109db60006112b1565b610bf8611257565b6000610c02611128565b600555426004556001600160a01b03811615610c4b57610c218161033f565b6001600160a01b038216600090815260076020526040902060028101919091556005546001909101555b60008211610c915760405162461bcd60e51b8152602060048201526013602482015272496e76616c696420726577617264207261746560681b60448201526064016104f2565b60038290556040518281527f41d466ebd06fb97e7786086ac8b69b7eb7da798592036251291d34e9791cde019060200160405180910390a15050565b610cd56111fe565b33610cde611128565b600555426004556001600160a01b03811615610d2757610cfd8161033f565b6001600160a01b038216600090815260076020526040902060028101919091556005546001909101555b60008211610d685760405162461bcd60e51b815260206004820152600e60248201526d043616e6e6f74207374616b6520360941b60448201526064016104f2565b6040516370a0823160e01b815233600482015282907f00000000000000000000000000000000000000000000000000000000000000006001600160a01b0316906370a0823190602401602060405180830381865afa158015610dce573d6000803e3d6000fd5b505050506040513d601f19601f82011682018060405250810190610df291906114ac565b1015610e375760405162461bcd60e51b8152602060048201526014602482015273496e73756666696369656e742062616c616e636560601b60448201526064016104f2565b336000908152600760209081526040808320600480820154835160808101855288815242818701908152600195820186815260608301848152600587018054808a018255908b52988a20845199909602909501978855905195870195909555935160028601805460ff19169115159190911790559051600390940193909355805490938691859190610eca908490611432565b9091555050600483018054906000610ee18361145b565b91905055508460026000828254610ef89190611432565b90915550506040516323b872dd60e01b8152336004820152306024820152604481018690527f00000000000000000000000000000000000000000000000000000000000000006001600160a01b0316906323b872dd906064016020604051808303816000875af1158015610f70573d6000803e3d6000fd5b505050506040513d601f19601f82011682018060405250810190610f949190611474565b610fd25760405162461bcd60e51b815260206004820152600f60248201526e151c985b9cd9995c8819985a5b1959608a1b60448201526064016104f2565b60408051868152602081018490524281830152905133917fb4caaf29adda3eefee3ad552a8e85058589bf834c7466cae4ee58787f70589ed919081900360600190a2505050506106e36001600055565b61102a611257565b7f00000000000000000000000000000000000000000000000000000000000000006001600160a01b031663a9059cbb61106b6001546001600160a01b031690565b6040516001600160e01b031960e084901b1681526001600160a01b039091166004820152602481018490526044016020604051808303816000875af11580156110b8573d6000803e3d6000fd5b505050506040513d601f19601f820116820180604052508101906110dc9190611474565b6106e35760405162461bcd60e51b815260206004820152601d60248201527f5374616b696e6720746f6b656e207472616e73666572206661696c656400000060448201526064016104f2565b600060025460000361113b575060055490565b600254670de0b6b3a76400006003546004544261115891906113e6565b61116291906113f9565b61116c91906113f9565b6111769190611410565b6005546111839190611432565b905090565b611190611257565b6001600160a01b0381166111f55760405162461bcd60e51b815260206004820152602660248201527f4f776e61626c653a206e6577206f776e657220697320746865207a65726f206160448201526564647265737360d01b60648201526084016104f2565b6106e3816112b1565b6002600054036112505760405162461bcd60e51b815260206004820152601f60248201527f5265656e7472616e637947756172643a207265656e7472616e742063616c6c0060448201526064016104f2565b6002600055565b6001546001600160a01b031633146109db5760405162461bcd60e51b815260206004820181905260248201527f4f776e61626c653a2063616c6c6572206973206e6f7420746865206f776e657260448201526064016104f2565b600180546001600160a01b038381166001600160a01b0319831681179093556040519116919082907f8be0079c531659141344cd1fd0a4f28419497f9722a3daafe3b4186f6b6457e090600090a35050565b60006020828403121561131557600080fd5b81356001600160a01b038116811461132c57600080fd5b9392505050565b60006020828403121561134557600080fd5b5035919050565b600060a08201878352602087818501526040878186015260608781870152608060a08188015284885180875260c089019150858a01965060005b818110156113bd57875180518452878101518885015286810151151587850152850151858401529686019691830191600101611386565b50909d9c50505050505050505050505050565b634e487b7160e01b600052601160045260246000fd5b818103818111156103b5576103b56113d0565b80820281158282048414176103b5576103b56113d0565b60008261142d57634e487b7160e01b600052601260045260246000fd5b500490565b808201808211156103b5576103b56113d0565b634e487b7160e01b600052603260045260246000fd5b60006001820161146d5761146d6113d0565b5060010190565b60006020828403121561148657600080fd5b8151801515811461132c57600080fd5b634e487b7160e01b600052604160045260246000fd5b6000602082840312156114be57600080fd5b505191905056fea26469706673582212200edfc5483b215e2aa73448791192302d333fd08ba39a0a90630c3fc533ff21b464736f6c63430008130033",
  "linkReferences": {},
  "deployedLinkReferences": {}
}