{
  "_format": "hh-sol-artifact-1",
  "contractName": "TokenPresaleETH",
  "sourceName": "contracts/TokenPresaleETH.sol",
  "abi": [
    {
      "inputs": [
        {
          "internalType": "address",
          "name": "_saleToken",
          "type": "address"
        },
        {
          "internalType": "uint256",
          "name": "_tokenPriceUSD",
          "type": "uint256"
        },
        {
          "internalType": "address",
          "name": "_ethPriceFeed",
          "type": "address"
        }
      ],
      "stateMutability": "nonpayable",
      "type": "constructor"
    },
    {
      "anonymous": false,
      "inputs": [
        {
          "indexed": true,
          "internalType": "address",
          "name": "to",
          "type": "address"
        },
        {
          "indexed": false,
          "internalType": "uint256",
          "name": "amount",
          "type": "uint256"
        }
      ],
      "name": "ETHWithdrawn",
      "type": "event"
    },
    {
      "anonymous": false,
      "inputs": [
        {
          "indexed": true,
          "internalType": "address",
          "name": "previousOwner",
          "type": "address"
        },
        {
          "indexed": true,
          "internalType": "address",
          "name": "newOwner",
          "type": "address"
        }
      ],
      "name": "OwnershipTransferred",
      "type": "event"
    },
    {
      "inputs": [],
      "name": "ETH_DECIMALS",
      "outputs": [
        {
          "internalType": "uint256",
          "name": "",
          "type": "uint256"
        }
      ],
      "stateMutability": "view",
      "type": "function"
    },
    {
      "inputs": [],
      "name": "PRICE_DECIMALS",
      "outputs": [
        {
          "internalType": "uint256",
          "name": "",
          "type": "uint256"
        }
      ],
      "stateMutability": "view",
      "type": "function"
    },
    {
      "inputs": [],
      "name": "TOKEN_DECIMALS",
      "outputs": [
        {
          "internalType": "uint256",
          "name": "",
          "type": "uint256"
        }
      ],
      "stateMutability": "view",
      "type": "function"
    },
    {
      "inputs": [],
      "name": "buyTokens",
      "outputs": [],
      "stateMutability": "payable",
      "type": "function"
    },
    {
      "inputs": [
        {
          "internalType": "uint256",
          "name": "tokenAmount",
          "type": "uint256"
        }
      ],
      "name": "calculateETHAmount",
      "outputs": [
        {
          "internalType": "uint256",
          "name": "",
          "type": "uint256"
        }
      ],
      "stateMutability": "view",
      "type": "function"
    },
    {
      "inputs": [
        {
          "internalType": "uint256",
          "name": "ethAmount",
          "type": "uint256"
        }
      ],
      "name": "calculateTokenAmount",
      "outputs": [
        {
          "internalType": "uint256",
          "name": "",
          "type": "uint256"
        }
      ],
      "stateMutability": "view",
      "type": "function"
    },
    {
      "inputs": [],
      "name": "ethPriceFeed",
      "outputs": [
        {
          "internalType": "address",
          "name": "",
          "type": "address"
        }
      ],
      "stateMutability": "view",
      "type": "function"
    },
    {
      "inputs": [],
      "name": "getLatestETHPrice",
      "outputs": [
        {
          "internalType": "uint256",
          "name": "",
          "type": "uint256"
        }
      ],
      "stateMutability": "view",
      "type": "function"
    },
    {
      "inputs": [],
      "name": "owner",
      "outputs": [
        {
          "internalType": "address",
          "name": "",
          "type": "address"
        }
      ],
      "stateMutability": "view",
      "type": "function"
    },
    {
      "inputs": [],
      "name": "renounceOwnership",
      "outputs": [],
      "stateMutability": "nonpayable",
      "type": "function"
    },
    {
      "inputs": [],
      "name": "saleToken",
      "outputs": [
        {
          "internalType": "contract IERC20",
          "name": "",
          "type": "address"
        }
      ],
      "stateMutability": "view",
      "type": "function"
    },
    {
      "inputs": [],
      "name": "tokenPriceUSD",
      "outputs": [
        {
          "internalType": "uint256",
          "name": "",
          "type": "uint256"
        }
      ],
      "stateMutability": "view",
      "type": "function"
    },
    {
      "inputs": [
        {
          "internalType": "address",
          "name": "newOwner",
          "type": "address"
        }
      ],
      "name": "transferOwnership",
      "outputs": [],
      "stateMutability": "nonpayable",
      "type": "function"
    },
    {
      "inputs": [
        {
          "internalType": "address payable",
          "name": "_to",
          "type": "address"
        }
      ],
      "name": "withdrawAllETH",
      "outputs": [],
      "stateMutability": "nonpayable",
      "type": "function"
    },
    {
      "inputs": [
        {
          "internalType": "address",
          "name": "_to",
          "type": "address"
        },
        {
          "internalType": "uint256",
          "name": "_amount",
          "type": "uint256"
        }
      ],
      "name": "withdrawTokens",
      "outputs": [],
      "stateMutability": "nonpayable",
      "type": "function"
    },
    {
      "stateMutability": "payable",
      "type": "receive"
    }
  ],
  "bytecode": "0x60c06040523480156200001157600080fd5b50604051620011bd380380620011bd8339810160408190526200003491620001fb565b6200003f336200018e565b600180556001600160a01b038316620000ae5760405162461bcd60e51b815260206004820152602660248201527f546f6b656e50726573616c654554483a20496e76616c696420746f6b656e206160448201526564647265737360d01b60648201526084015b60405180910390fd5b600082116200010c5760405162461bcd60e51b8152602060048201526024808201527f546f6b656e50726573616c654554483a20496e76616c696420746f6b656e20706044820152637269636560e01b6064820152608401620000a5565b6001600160a01b038116620001705760405162461bcd60e51b815260206004820152602360248201527f546f6b656e50726573616c654554483a20496e76616c6964207072696365206660448201526219595960ea1b6064820152608401620000a5565b6001600160a01b039283166080526002919091551660a0526200023c565b600080546001600160a01b038381166001600160a01b0319831681178455604051919092169283917f8be0079c531659141344cd1fd0a4f28419497f9722a3daafe3b4186f6b6457e09190a35050565b80516001600160a01b0381168114620001f657600080fd5b919050565b6000806000606084860312156200021157600080fd5b6200021c84620001de565b9250602084015191506200023360408501620001de565b90509250925092565b60805160a051610f3f6200027e60003960008181610226015261048801526000818161026201528181610366015281816108b301526109a80152610f3f6000f3fe6080604052600436106100ec5760003560e01c806392cd1ff21161008a578063d0febe4c11610059578063d0febe4c14610248578063e985e36714610250578063f1a640f814610284578063f2fde38b1461029957600080fd5b806392cd1ff2146101635780639ebd9115146101d4578063a24bcf46146101f4578063af7665ce1461021457600080fd5b80635b7f415c116100c65780635b7f415c14610163578063715018a614610178578063777e0d861461018d5780638da5cb5b146101a257600080fd5b806306b091f9146100f8578063407fcc311461011a57806340fbc1661461014357600080fd5b366100f357005b600080fd5b34801561010457600080fd5b50610118610113366004610bd5565b6102b9565b005b34801561012657600080fd5b5061013060025481565b6040519081526020015b60405180910390f35b34801561014f57600080fd5b5061013061015e366004610c01565b6103f3565b34801561016f57600080fd5b50610130601281565b34801561018457600080fd5b50610118610470565b34801561019957600080fd5b50610130610484565b3480156101ae57600080fd5b506000546001600160a01b03165b6040516001600160a01b03909116815260200161013a565b3480156101e057600080fd5b506101186101ef366004610c1a565b610673565b34801561020057600080fd5b5061013061020f366004610c01565b610779565b34801561022057600080fd5b506101bc7f000000000000000000000000000000000000000000000000000000000000000081565b610118610816565b34801561025c57600080fd5b506101bc7f000000000000000000000000000000000000000000000000000000000000000081565b34801561029057600080fd5b50610130600881565b3480156102a557600080fd5b506101186102b4366004610c1a565b610a44565b6102c1610abd565b6001600160a01b0382166102f05760405162461bcd60e51b81526004016102e790610c3e565b60405180910390fd5b600081116103405760405162461bcd60e51b815260206004820152601f60248201527f546f6b656e50726573616c654554483a20496e76616c696420616d6f756e740060448201526064016102e7565b60405163a9059cbb60e01b81526001600160a01b038381166004830152602482018390527f0000000000000000000000000000000000000000000000000000000000000000169063a9059cbb906044016020604051808303816000875af11580156103af573d6000803e3d6000fd5b505050506040513d601f19601f820116820180604052508101906103d39190610c80565b6103ef5760405162461bcd60e51b81526004016102e790610ca2565b5050565b60008082116104145760405162461bcd60e51b81526004016102e790610ce8565b600061041e610484565b9050600061042e6012600a610e29565b60025461043b9086610e35565b6104459190610e4c565b9050816104546012600a610e29565b61045e9083610e35565b6104689190610e4c565b949350505050565b610478610abd565b6104826000610b17565b565b60007f00000000000000000000000000000000000000000000000000000000000000006001600160a01b031663feaf968c6040518163ffffffff1660e01b815260040160a060405180830381865afa925050508015610500575060408051601f3d908101601f191682019092526104fd91810190610e8d565b60015b6105565760405162461bcd60e51b815260206004820152602160248201527f546f6b656e50726573616c654554483a2050726963652066656564206572726f6044820152603960f91b60648201526084016102e7565b600084136105a65760405162461bcd60e51b815260206004820152601e60248201527f546f6b656e50726573616c654554483a20496e76616c6964207072696365000060448201526064016102e7565b6105b2610e1042610edd565b8210156106015760405162461bcd60e51b815260206004820152601c60248201527f546f6b656e50726573616c654554483a205374616c652070726963650000000060448201526064016102e7565b8469ffffffffffffffffffff168169ffffffffffffffffffff1610156106695760405162461bcd60e51b815260206004820152601c60248201527f546f6b656e50726573616c654554483a205374616c6520726f756e640000000060448201526064016102e7565b5091949350505050565b61067b610abd565b6001600160a01b0381166106a15760405162461bcd60e51b81526004016102e790610c3e565b47806106fb5760405162461bcd60e51b815260206004820152602360248201527f546f6b656e50726573616c654554483a204e6f2045544820746f20776974686460448201526272617760e81b60648201526084016102e7565b6040516001600160a01b0383169082156108fc029083906000818181858888f19350505050158015610731573d6000803e3d6000fd5b50816001600160a01b03167f94b2de810873337ed265c5f8cf98c9cffefa06b8607f9a2f1fbaebdfbcfbef1c8260405161076d91815260200190565b60405180910390a25050565b60008082116107d65760405162461bcd60e51b815260206004820152602360248201527f546f6b656e50726573616c654554483a20496e76616c69642045544820616d6f6044820152621d5b9d60ea1b60648201526084016102e7565b60006107e0610484565b905060006107f06012600a610e29565b6107fa8386610e35565b6108049190610e4c565b6002549091506104546012600a610e29565b61081e610b67565b6000341161086e5760405162461bcd60e51b815260206004820152601c60248201527f546f6b656e50726573616c654554483a204e6f204554482073656e740000000060448201526064016102e7565b600061087934610779565b90506000811161089b5760405162461bcd60e51b81526004016102e790610ce8565b6040516370a0823160e01b81523060048201526000907f00000000000000000000000000000000000000000000000000000000000000006001600160a01b0316906370a0823190602401602060405180830381865afa158015610902573d6000803e3d6000fd5b505050506040513d601f19601f820116820180604052508101906109269190610ef0565b90508181101561098c5760405162461bcd60e51b815260206004820152602b60248201527f546f6b656e50726573616c654554483a20496e73756666696369656e7420746f60448201526a6b656e2062616c616e636560a81b60648201526084016102e7565b60405163a9059cbb60e01b8152336004820152602481018390527f00000000000000000000000000000000000000000000000000000000000000006001600160a01b03169063a9059cbb906044016020604051808303816000875af11580156109f9573d6000803e3d6000fd5b505050506040513d601f19601f82011682018060405250810190610a1d9190610c80565b610a395760405162461bcd60e51b81526004016102e790610ca2565b505061048260018055565b610a4c610abd565b6001600160a01b038116610ab15760405162461bcd60e51b815260206004820152602660248201527f4f776e61626c653a206e6577206f776e657220697320746865207a65726f206160448201526564647265737360d01b60648201526084016102e7565b610aba81610b17565b50565b6000546001600160a01b031633146104825760405162461bcd60e51b815260206004820181905260248201527f4f776e61626c653a2063616c6c6572206973206e6f7420746865206f776e657260448201526064016102e7565b600080546001600160a01b038381166001600160a01b0319831681178455604051919092169283917f8be0079c531659141344cd1fd0a4f28419497f9722a3daafe3b4186f6b6457e09190a35050565b600260015403610bb95760405162461bcd60e51b815260206004820152601f60248201527f5265656e7472616e637947756172643a207265656e7472616e742063616c6c0060448201526064016102e7565b6002600155565b6001600160a01b0381168114610aba57600080fd5b60008060408385031215610be857600080fd5b8235610bf381610bc0565b946020939093013593505050565b600060208284031215610c1357600080fd5b5035919050565b600060208284031215610c2c57600080fd5b8135610c3781610bc0565b9392505050565b60208082526022908201527f546f6b656e50726573616c654554483a20496e76616c696420726563697069656040820152611b9d60f21b606082015260800190565b600060208284031215610c9257600080fd5b81518015158114610c3757600080fd5b60208082526026908201527f546f6b656e50726573616c654554483a20546f6b656e207472616e736665722060408201526519985a5b195960d21b606082015260800190565b60208082526025908201527f546f6b656e50726573616c654554483a20496e76616c696420746f6b656e20616040820152641b5bdd5b9d60da1b606082015260800190565b634e487b7160e01b600052601160045260246000fd5b600181815b80851115610d7e578160001904821115610d6457610d64610d2d565b80851615610d7157918102915b93841c9390800290610d48565b509250929050565b600082610d9557506001610e23565b81610da257506000610e23565b8160018114610db85760028114610dc257610dde565b6001915050610e23565b60ff841115610dd357610dd3610d2d565b50506001821b610e23565b5060208310610133831016604e8410600b8410161715610e01575081810a610e23565b610e0b8383610d43565b8060001904821115610e1f57610e1f610d2d565b0290505b92915050565b6000610c378383610d86565b8082028115828204841417610e2357610e23610d2d565b600082610e6957634e487b7160e01b600052601260045260246000fd5b500490565b805169ffffffffffffffffffff81168114610e8857600080fd5b919050565b600080600080600060a08688031215610ea557600080fd5b610eae86610e6e565b9450602086015193506040860151925060608601519150610ed160808701610e6e565b90509295509295909350565b81810381811115610e2357610e23610d2d565b600060208284031215610f0257600080fd5b505191905056fea26469706673582212203fbdb179d21ce278b96e2a882e074206dd2d98abd0ab47ae4e41f49cd324689b64736f6c63430008130033",
  "linkReferences": {},
  "deployedLinkReferences": {}
}